{
  "_format": "hh-sol-artifact-1",
  "contractName": "SampleContract",
  "sourceName": "contracts/boiler.sol",
  "abi": [
    {
      "inputs": [],
      "stateMutability": "nonpayable",
      "type": "constructor"
    },
    {
      "anonymous": false,
      "inputs": [
        {
          "indexed": false,
          "internalType": "uint256",
          "name": "requestId",
          "type": "uint256"
        },
        {
          "indexed": false,
          "internalType": "string",
          "name": "SERVER_ID",
          "type": "string"
        },
        {
          "indexed": false,
          "internalType": "string",
          "name": "USER_ID",
          "type": "string"
        }
      ],
      "name": "RequestMade",
      "type": "event"
    },
    {
      "anonymous": false,
      "inputs": [
        {
          "indexed": false,
          "internalType": "uint256",
          "name": "requestId",
          "type": "uint256"
        }
      ],
      "name": "ResponseReceived",
      "type": "event"
    },
    {
      "inputs": [
        {
          "internalType": "string",
          "name": "SERVER_ID",
          "type": "string"
        },
        {
          "internalType": "string",
          "name": "USER_ID",
          "type": "string"
        }
      ],
      "name": "callMidpoint",
      "outputs": [],
      "stateMutability": "nonpayable",
      "type": "function"
    },
    {
      "inputs": [
        {
          "internalType": "uint256",
          "name": "_requestId",
          "type": "uint256"
        },
        {
          "internalType": "uint64",
          "name": "_midpointId",
          "type": "uint64"
        }
      ],
      "name": "callback",
      "outputs": [],
      "stateMutability": "nonpayable",
      "type": "function"
    }
  ],
  "bytecode": "0x608060405234801561001057600080fd5b506104ee806100206000396000f3fe608060405234801561001057600080fd5b50600436106100365760003560e01c8063bad433fc1461003b578063e76d855814610050575b600080fd5b61004e610049366004610250565b610063565b005b61004e61005e366004610330565b610153565b3273c0ffee4a3a2d488b138d090b8112875b90b5e6d9146100cb5760405162461bcd60e51b815260206004820152601860248201527f496e76616c69642063616c6c6261636b2061646472657373000000000000000060448201526064015b60405180910390fd5b61019e67ffffffffffffffff82161461011c5760405162461bcd60e51b8152602060048201526013602482015272125b9d985b1a5908135a591c1bda5b9d081251606a1b60448201526064016100c2565b6040518281527f2aa502e284148fdbdb0844b15f1e8aa5b55b081330864831c0c96a38de63c09a9060200160405180910390a15050565b60405160009061016d9084908390859082906020016103c4565b60408051601f198184030181529082905263a2fb6d6f60e01b825291506000907347a4905d4c2eabd58abbdfecbaeb07f1a29b660c9063a2fb6d6f906101bb9061019e90869060040161043f565b602060405180830381600087803b1580156101d557600080fd5b505af11580156101e9573d6000803e3d6000fd5b505050506040513d601f19601f8201168201806040525081019061020d919061046a565b90507fbaa1435617517887ddde4c973bfcd3c7e8a4bf9ac8a02eae60885c4e67eee9f681858560405161024293929190610483565b60405180910390a150505050565b6000806040838503121561026357600080fd5b82359150602083013567ffffffffffffffff8116811461028257600080fd5b809150509250929050565b634e487b7160e01b600052604160045260246000fd5b600082601f8301126102b457600080fd5b813567ffffffffffffffff808211156102cf576102cf61028d565b604051601f8301601f19908116603f011681019082821181831017156102f7576102f761028d565b8160405283815286602085880101111561031057600080fd5b836020870160208301376000602085830101528094505050505092915050565b6000806040838503121561034357600080fd5b823567ffffffffffffffff8082111561035b57600080fd5b610367868387016102a3565b9350602085013591508082111561037d57600080fd5b5061038a858286016102a3565b9150509250929050565b60005b838110156103af578181015183820152602001610397565b838111156103be576000848401525b50505050565b600085516103d6818460208a01610394565b6001600160f81b031986811691840191825285516103fb816001850160208a01610394565b94169301600181019390935250506002019392505050565b6000815180845261042b816020860160208601610394565b601f01601f19169290920160200192915050565b67ffffffffffffffff831681526040602082015260006104626040830184610413565b949350505050565b60006020828403121561047c57600080fd5b5051919050565b83815260606020820152600061049c6060830185610413565b82810360408401526104ae8185610413565b969550505050505056fea2646970667358221220807bd778e3bf4d15ea15d1973abb34fdd4489afc67a2587fef4dd3e8837ee0f864736f6c63430008090033",
  "linkReferences": {},
  "deployedLinkReferences": {}
}