{
  "_format": "hh-sol-artifact-1",
  "contractName": "GovernorContract",
  "sourceName": "contracts/governance_standard/GovernorContract.sol",
  "abi": [
    {
      "inputs": [
        {
          "internalType": "contract IVotes",
          "name": "_token",
          "type": "address"
        },
        {
          "internalType": "contract TimelockController",
          "name": "_timelock",
          "type": "address"
        },
        {
          "internalType": "uint256",
          "name": "_quorumPercentage",
          "type": "uint256"
        },
        {
          "internalType": "uint256",
          "name": "_votingPeriod",
          "type": "uint256"
        },
        {
          "internalType": "uint256",
          "name": "_votingDelay",
          "type": "uint256"
        },
        {
          "internalType": "address",
          "name": "_midpointContract",
          "type": "address"
        }
      ],
      "stateMutability": "nonpayable",
      "type": "constructor"
    },
    {
      "inputs": [],
      "name": "Empty",
      "type": "error"
    },
    {
      "anonymous": false,
      "inputs": [
        {
          "indexed": false,
          "internalType": "uint256",
          "name": "proposalId",
          "type": "uint256"
        }
      ],
      "name": "ProposalCanceled",
      "type": "event"
    },
    {
      "anonymous": false,
      "inputs": [
        {
          "indexed": false,
          "internalType": "uint256",
          "name": "proposalId",
          "type": "uint256"
        },
        {
          "indexed": false,
          "internalType": "address",
          "name": "proposer",
          "type": "address"
        },
        {
          "indexed": false,
          "internalType": "address[]",
          "name": "targets",
          "type": "address[]"
        },
        {
          "indexed": false,
          "internalType": "uint256[]",
          "name": "values",
          "type": "uint256[]"
        },
        {
          "indexed": false,
          "internalType": "string[]",
          "name": "signatures",
          "type": "string[]"
        },
        {
          "indexed": false,
          "internalType": "bytes[]",
          "name": "calldatas",
          "type": "bytes[]"
        },
        {
          "indexed": false,
          "internalType": "uint256",
          "name": "startBlock",
          "type": "uint256"
        },
        {
          "indexed": false,
          "internalType": "uint256",
          "name": "endBlock",
          "type": "uint256"
        },
        {
          "indexed": false,
          "internalType": "string",
          "name": "description",
          "type": "string"
        }
      ],
      "name": "ProposalCreated",
      "type": "event"
    },
    {
      "anonymous": false,
      "inputs": [
        {
          "indexed": false,
          "internalType": "uint256",
          "name": "proposalId",
          "type": "uint256"
        }
      ],
      "name": "ProposalExecuted",
      "type": "event"
    },
    {
      "anonymous": false,
      "inputs": [
        {
          "indexed": false,
          "internalType": "uint256",
          "name": "proposalId",
          "type": "uint256"
        },
        {
          "indexed": false,
          "internalType": "uint256",
          "name": "eta",
          "type": "uint256"
        }
      ],
      "name": "ProposalQueued",
      "type": "event"
    },
    {
      "anonymous": false,
      "inputs": [
        {
          "indexed": false,
          "internalType": "uint256",
          "name": "oldProposalThreshold",
          "type": "uint256"
        },
        {
          "indexed": false,
          "internalType": "uint256",
          "name": "newProposalThreshold",
          "type": "uint256"
        }
      ],
      "name": "ProposalThresholdSet",
      "type": "event"
    },
    {
      "anonymous": false,
      "inputs": [
        {
          "indexed": false,
          "internalType": "uint256",
          "name": "oldQuorumNumerator",
          "type": "uint256"
        },
        {
          "indexed": false,
          "internalType": "uint256",
          "name": "newQuorumNumerator",
          "type": "uint256"
        }
      ],
      "name": "QuorumNumeratorUpdated",
      "type": "event"
    },
    {
      "anonymous": false,
      "inputs": [
        {
          "indexed": false,
          "internalType": "address",
          "name": "oldTimelock",
          "type": "address"
        },
        {
          "indexed": false,
          "internalType": "address",
          "name": "newTimelock",
          "type": "address"
        }
      ],
      "name": "TimelockChange",
      "type": "event"
    },
    {
      "anonymous": false,
      "inputs": [
        {
          "indexed": true,
          "internalType": "address",
          "name": "voter",
          "type": "address"
        },
        {
          "indexed": false,
          "internalType": "uint256",
          "name": "proposalId",
          "type": "uint256"
        },
        {
          "indexed": false,
          "internalType": "uint8",
          "name": "support",
          "type": "uint8"
        },
        {
          "indexed": false,
          "internalType": "uint256",
          "name": "weight",
          "type": "uint256"
        },
        {
          "indexed": false,
          "internalType": "string",
          "name": "reason",
          "type": "string"
        }
      ],
      "name": "VoteCast",
      "type": "event"
    },
    {
      "anonymous": false,
      "inputs": [
        {
          "indexed": true,
          "internalType": "address",
          "name": "voter",
          "type": "address"
        },
        {
          "indexed": false,
          "internalType": "uint256",
          "name": "proposalId",
          "type": "uint256"
        },
        {
          "indexed": false,
          "internalType": "uint8",
          "name": "support",
          "type": "uint8"
        },
        {
          "indexed": false,
          "internalType": "uint256",
          "name": "weight",
          "type": "uint256"
        },
        {
          "indexed": false,
          "internalType": "string",
          "name": "reason",
          "type": "string"
        },
        {
          "indexed": false,
          "internalType": "bytes",
          "name": "params",
          "type": "bytes"
        }
      ],
      "name": "VoteCastWithParams",
      "type": "event"
    },
    {
      "anonymous": false,
      "inputs": [
        {
          "indexed": false,
          "internalType": "uint256",
          "name": "oldVotingDelay",
          "type": "uint256"
        },
        {
          "indexed": false,
          "internalType": "uint256",
          "name": "newVotingDelay",
          "type": "uint256"
        }
      ],
      "name": "VotingDelaySet",
      "type": "event"
    },
    {
      "anonymous": false,
      "inputs": [
        {
          "indexed": false,
          "internalType": "uint256",
          "name": "oldVotingPeriod",
          "type": "uint256"
        },
        {
          "indexed": false,
          "internalType": "uint256",
          "name": "newVotingPeriod",
          "type": "uint256"
        }
      ],
      "name": "VotingPeriodSet",
      "type": "event"
    },
    {
      "inputs": [],
      "name": "BALLOT_TYPEHASH",
      "outputs": [
        {
          "internalType": "bytes32",
          "name": "",
          "type": "bytes32"
        }
      ],
      "stateMutability": "view",
      "type": "function"
    },
    {
      "inputs": [],
      "name": "COUNTING_MODE",
      "outputs": [
        {
          "internalType": "string",
          "name": "",
          "type": "string"
        }
      ],
      "stateMutability": "pure",
      "type": "function"
    },
    {
      "inputs": [],
      "name": "EXTENDED_BALLOT_TYPEHASH",
      "outputs": [
        {
          "internalType": "bytes32",
          "name": "",
          "type": "bytes32"
        }
      ],
      "stateMutability": "view",
      "type": "function"
    },
    {
      "inputs": [
        {
          "internalType": "address",
          "name": "_address",
          "type": "address"
        },
        {
          "internalType": "uint64",
          "name": "serverID",
          "type": "uint64"
        },
        {
          "internalType": "bytes",
          "name": "userID",
          "type": "bytes"
        }
      ],
      "name": "banUser",
      "outputs": [],
      "stateMutability": "nonpayable",
      "type": "function"
    },
    {
      "inputs": [
        {
          "internalType": "uint256",
          "name": "proposalId",
          "type": "uint256"
        },
        {
          "internalType": "uint8",
          "name": "support",
          "type": "uint8"
        }
      ],
      "name": "castVote",
      "outputs": [
        {
          "internalType": "uint256",
          "name": "",
          "type": "uint256"
        }
      ],
      "stateMutability": "nonpayable",
      "type": "function"
    },
    {
      "inputs": [
        {
          "internalType": "uint256",
          "name": "proposalId",
          "type": "uint256"
        },
        {
          "internalType": "uint8",
          "name": "support",
          "type": "uint8"
        },
        {
          "internalType": "uint8",
          "name": "v",
          "type": "uint8"
        },
        {
          "internalType": "bytes32",
          "name": "r",
          "type": "bytes32"
        },
        {
          "internalType": "bytes32",
          "name": "s",
          "type": "bytes32"
        }
      ],
      "name": "castVoteBySig",
      "outputs": [
        {
          "internalType": "uint256",
          "name": "",
          "type": "uint256"
        }
      ],
      "stateMutability": "nonpayable",
      "type": "function"
    },
    {
      "inputs": [
        {
          "internalType": "uint256",
          "name": "proposalId",
          "type": "uint256"
        },
        {
          "internalType": "uint8",
          "name": "support",
          "type": "uint8"
        },
        {
          "internalType": "string",
          "name": "reason",
          "type": "string"
        }
      ],
      "name": "castVoteWithReason",
      "outputs": [
        {
          "internalType": "uint256",
          "name": "",
          "type": "uint256"
        }
      ],
      "stateMutability": "nonpayable",
      "type": "function"
    },
    {
      "inputs": [
        {
          "internalType": "uint256",
          "name": "proposalId",
          "type": "uint256"
        },
        {
          "internalType": "uint8",
          "name": "support",
          "type": "uint8"
        },
        {
          "internalType": "string",
          "name": "reason",
          "type": "string"
        },
        {
          "internalType": "bytes",
          "name": "params",
          "type": "bytes"
        }
      ],
      "name": "castVoteWithReasonAndParams",
      "outputs": [
        {
          "internalType": "uint256",
          "name": "",
          "type": "uint256"
        }
      ],
      "stateMutability": "nonpayable",
      "type": "function"
    },
    {
      "inputs": [
        {
          "internalType": "uint256",
          "name": "proposalId",
          "type": "uint256"
        },
        {
          "internalType": "uint8",
          "name": "support",
          "type": "uint8"
        },
        {
          "internalType": "string",
          "name": "reason",
          "type": "string"
        },
        {
          "internalType": "bytes",
          "name": "params",
          "type": "bytes"
        },
        {
          "internalType": "uint8",
          "name": "v",
          "type": "uint8"
        },
        {
          "internalType": "bytes32",
          "name": "r",
          "type": "bytes32"
        },
        {
          "internalType": "bytes32",
          "name": "s",
          "type": "bytes32"
        }
      ],
      "name": "castVoteWithReasonAndParamsBySig",
      "outputs": [
        {
          "internalType": "uint256",
          "name": "",
          "type": "uint256"
        }
      ],
      "stateMutability": "nonpayable",
      "type": "function"
    },
    {
      "inputs": [
        {
          "internalType": "address[]",
          "name": "targets",
          "type": "address[]"
        },
        {
          "internalType": "uint256[]",
          "name": "values",
          "type": "uint256[]"
        },
        {
          "internalType": "bytes[]",
          "name": "calldatas",
          "type": "bytes[]"
        },
        {
          "internalType": "bytes32",
          "name": "descriptionHash",
          "type": "bytes32"
        }
      ],
      "name": "execute",
      "outputs": [
        {
          "internalType": "uint256",
          "name": "",
          "type": "uint256"
        }
      ],
      "stateMutability": "payable",
      "type": "function"
    },
    {
      "inputs": [
        {
          "internalType": "address",
          "name": "account",
          "type": "address"
        },
        {
          "internalType": "uint256",
          "name": "blockNumber",
          "type": "uint256"
        }
      ],
      "name": "getVotes",
      "outputs": [
        {
          "internalType": "uint256",
          "name": "",
          "type": "uint256"
        }
      ],
      "stateMutability": "view",
      "type": "function"
    },
    {
      "inputs": [
        {
          "internalType": "address",
          "name": "account",
          "type": "address"
        },
        {
          "internalType": "uint256",
          "name": "blockNumber",
          "type": "uint256"
        },
        {
          "internalType": "bytes",
          "name": "params",
          "type": "bytes"
        }
      ],
      "name": "getVotesWithParams",
      "outputs": [
        {
          "internalType": "uint256",
          "name": "",
          "type": "uint256"
        }
      ],
      "stateMutability": "view",
      "type": "function"
    },
    {
      "inputs": [
        {
          "internalType": "uint256",
          "name": "proposalId",
          "type": "uint256"
        },
        {
          "internalType": "address",
          "name": "account",
          "type": "address"
        }
      ],
      "name": "hasVoted",
      "outputs": [
        {
          "internalType": "bool",
          "name": "",
          "type": "bool"
        }
      ],
      "stateMutability": "view",
      "type": "function"
    },
    {
      "inputs": [
        {
          "internalType": "address[]",
          "name": "targets",
          "type": "address[]"
        },
        {
          "internalType": "uint256[]",
          "name": "values",
          "type": "uint256[]"
        },
        {
          "internalType": "bytes[]",
          "name": "calldatas",
          "type": "bytes[]"
        },
        {
          "internalType": "bytes32",
          "name": "descriptionHash",
          "type": "bytes32"
        }
      ],
      "name": "hashProposal",
      "outputs": [
        {
          "internalType": "uint256",
          "name": "",
          "type": "uint256"
        }
      ],
      "stateMutability": "pure",
      "type": "function"
    },
    {
      "inputs": [],
      "name": "midpointContract",
      "outputs": [
        {
          "internalType": "address",
          "name": "",
          "type": "address"
        }
      ],
      "stateMutability": "view",
      "type": "function"
    },
    {
      "inputs": [],
      "name": "name",
      "outputs": [
        {
          "internalType": "string",
          "name": "",
          "type": "string"
        }
      ],
      "stateMutability": "view",
      "type": "function"
    },
    {
      "inputs": [
        {
          "internalType": "address",
          "name": "",
          "type": "address"
        },
        {
          "internalType": "address",
          "name": "",
          "type": "address"
        },
        {
          "internalType": "uint256[]",
          "name": "",
          "type": "uint256[]"
        },
        {
          "internalType": "uint256[]",
          "name": "",
          "type": "uint256[]"
        },
        {
          "internalType": "bytes",
          "name": "",
          "type": "bytes"
        }
      ],
      "name": "onERC1155BatchReceived",
      "outputs": [
        {
          "internalType": "bytes4",
          "name": "",
          "type": "bytes4"
        }
      ],
      "stateMutability": "nonpayable",
      "type": "function"
    },
    {
      "inputs": [
        {
          "internalType": "address",
          "name": "",
          "type": "address"
        },
        {
          "internalType": "address",
          "name": "",
          "type": "address"
        },
        {
          "internalType": "uint256",
          "name": "",
          "type": "uint256"
        },
        {
          "internalType": "uint256",
          "name": "",
          "type": "uint256"
        },
        {
          "internalType": "bytes",
          "name": "",
          "type": "bytes"
        }
      ],
      "name": "onERC1155Received",
      "outputs": [
        {
          "internalType": "bytes4",
          "name": "",
          "type": "bytes4"
        }
      ],
      "stateMutability": "nonpayable",
      "type": "function"
    },
    {
      "inputs": [
        {
          "internalType": "address",
          "name": "",
          "type": "address"
        },
        {
          "internalType": "address",
          "name": "",
          "type": "address"
        },
        {
          "internalType": "uint256",
          "name": "",
          "type": "uint256"
        },
        {
          "internalType": "bytes",
          "name": "",
          "type": "bytes"
        }
      ],
      "name": "onERC721Received",
      "outputs": [
        {
          "internalType": "bytes4",
          "name": "",
          "type": "bytes4"
        }
      ],
      "stateMutability": "nonpayable",
      "type": "function"
    },
    {
      "inputs": [
        {
          "internalType": "uint256",
          "name": "proposalId",
          "type": "uint256"
        }
      ],
      "name": "proposalDeadline",
      "outputs": [
        {
          "internalType": "uint256",
          "name": "",
          "type": "uint256"
        }
      ],
      "stateMutability": "view",
      "type": "function"
    },
    {
      "inputs": [
        {
          "internalType": "uint256",
          "name": "proposalId",
          "type": "uint256"
        }
      ],
      "name": "proposalEta",
      "outputs": [
        {
          "internalType": "uint256",
          "name": "",
          "type": "uint256"
        }
      ],
      "stateMutability": "view",
      "type": "function"
    },
    {
      "inputs": [
        {
          "internalType": "uint256",
          "name": "proposalId",
          "type": "uint256"
        }
      ],
      "name": "proposalSnapshot",
      "outputs": [
        {
          "internalType": "uint256",
          "name": "",
          "type": "uint256"
        }
      ],
      "stateMutability": "view",
      "type": "function"
    },
    {
      "inputs": [],
      "name": "proposalThreshold",
      "outputs": [
        {
          "internalType": "uint256",
          "name": "",
          "type": "uint256"
        }
      ],
      "stateMutability": "view",
      "type": "function"
    },
    {
      "inputs": [
        {
          "internalType": "uint256",
          "name": "proposalId",
          "type": "uint256"
        }
      ],
      "name": "proposalVotes",
      "outputs": [
        {
          "internalType": "uint256",
          "name": "againstVotes",
          "type": "uint256"
        },
        {
          "internalType": "uint256",
          "name": "forVotes",
          "type": "uint256"
        },
        {
          "internalType": "uint256",
          "name": "abstainVotes",
          "type": "uint256"
        }
      ],
      "stateMutability": "view",
      "type": "function"
    },
    {
      "inputs": [
        {
          "internalType": "address[]",
          "name": "targets",
          "type": "address[]"
        },
        {
          "internalType": "uint256[]",
          "name": "values",
          "type": "uint256[]"
        },
        {
          "internalType": "bytes[]",
          "name": "calldatas",
          "type": "bytes[]"
        },
        {
          "internalType": "string",
          "name": "description",
          "type": "string"
        }
      ],
      "name": "propose",
      "outputs": [
        {
          "internalType": "uint256",
          "name": "",
          "type": "uint256"
        }
      ],
      "stateMutability": "nonpayable",
      "type": "function"
    },
    {
      "inputs": [
        {
          "internalType": "address[]",
          "name": "targets",
          "type": "address[]"
        },
        {
          "internalType": "uint256[]",
          "name": "values",
          "type": "uint256[]"
        },
        {
          "internalType": "bytes[]",
          "name": "calldatas",
          "type": "bytes[]"
        },
        {
          "internalType": "bytes32",
          "name": "descriptionHash",
          "type": "bytes32"
        }
      ],
      "name": "queue",
      "outputs": [
        {
          "internalType": "uint256",
          "name": "",
          "type": "uint256"
        }
      ],
      "stateMutability": "nonpayable",
      "type": "function"
    },
    {
      "inputs": [
        {
          "internalType": "uint256",
          "name": "blockNumber",
          "type": "uint256"
        }
      ],
      "name": "quorum",
      "outputs": [
        {
          "internalType": "uint256",
          "name": "",
          "type": "uint256"
        }
      ],
      "stateMutability": "view",
      "type": "function"
    },
    {
      "inputs": [],
      "name": "quorumDenominator",
      "outputs": [
        {
          "internalType": "uint256",
          "name": "",
          "type": "uint256"
        }
      ],
      "stateMutability": "view",
      "type": "function"
    },
    {
      "inputs": [
        {
          "internalType": "uint256",
          "name": "blockNumber",
          "type": "uint256"
        }
      ],
      "name": "quorumNumerator",
      "outputs": [
        {
          "internalType": "uint256",
          "name": "",
          "type": "uint256"
        }
      ],
      "stateMutability": "view",
      "type": "function"
    },
    {
      "inputs": [],
      "name": "quorumNumerator",
      "outputs": [
        {
          "internalType": "uint256",
          "name": "",
          "type": "uint256"
        }
      ],
      "stateMutability": "view",
      "type": "function"
    },
    {
      "inputs": [
        {
          "internalType": "address",
          "name": "target",
          "type": "address"
        },
        {
          "internalType": "uint256",
          "name": "value",
          "type": "uint256"
        },
        {
          "internalType": "bytes",
          "name": "data",
          "type": "bytes"
        }
      ],
      "name": "relay",
      "outputs": [],
      "stateMutability": "nonpayable",
      "type": "function"
    },
    {
      "inputs": [
        {
          "internalType": "uint256",
          "name": "newProposalThreshold",
          "type": "uint256"
        }
      ],
      "name": "setProposalThreshold",
      "outputs": [],
      "stateMutability": "nonpayable",
      "type": "function"
    },
    {
      "inputs": [
        {
          "internalType": "uint256",
          "name": "newVotingDelay",
          "type": "uint256"
        }
      ],
      "name": "setVotingDelay",
      "outputs": [],
      "stateMutability": "nonpayable",
      "type": "function"
    },
    {
      "inputs": [
        {
          "internalType": "uint256",
          "name": "newVotingPeriod",
          "type": "uint256"
        }
      ],
      "name": "setVotingPeriod",
      "outputs": [],
      "stateMutability": "nonpayable",
      "type": "function"
    },
    {
      "inputs": [
        {
          "internalType": "uint256",
          "name": "proposalId",
          "type": "uint256"
        }
      ],
      "name": "state",
      "outputs": [
        {
          "internalType": "enum IGovernor.ProposalState",
          "name": "",
          "type": "uint8"
        }
      ],
      "stateMutability": "view",
      "type": "function"
    },
    {
      "inputs": [
        {
          "internalType": "bytes4",
          "name": "interfaceId",
          "type": "bytes4"
        }
      ],
      "name": "supportsInterface",
      "outputs": [
        {
          "internalType": "bool",
          "name": "",
          "type": "bool"
        }
      ],
      "stateMutability": "view",
      "type": "function"
    },
    {
      "inputs": [],
      "name": "timelock",
      "outputs": [
        {
          "internalType": "address",
          "name": "",
          "type": "address"
        }
      ],
      "stateMutability": "view",
      "type": "function"
    },
    {
      "inputs": [],
      "name": "token",
      "outputs": [
        {
          "internalType": "contract IVotes",
          "name": "",
          "type": "address"
        }
      ],
      "stateMutability": "view",
      "type": "function"
    },
    {
      "inputs": [
        {
          "internalType": "uint256",
          "name": "newQuorumNumerator",
          "type": "uint256"
        }
      ],
      "name": "updateQuorumNumerator",
      "outputs": [],
      "stateMutability": "nonpayable",
      "type": "function"
    },
    {
      "inputs": [
        {
          "internalType": "contract TimelockController",
          "name": "newTimelock",
          "type": "address"
        }
      ],
      "name": "updateTimelock",
      "outputs": [],
      "stateMutability": "nonpayable",
      "type": "function"
    },
    {
      "inputs": [
        {
          "internalType": "address",
          "name": "",
          "type": "address"
        }
      ],
      "name": "userBanStatus",
      "outputs": [
        {
          "internalType": "bool",
          "name": "",
          "type": "bool"
        }
      ],
      "stateMutability": "view",
      "type": "function"
    },
    {
      "inputs": [],
      "name": "version",
      "outputs": [
        {
          "internalType": "string",
          "name": "",
          "type": "string"
        }
      ],
      "stateMutability": "view",
      "type": "function"
    },
    {
      "inputs": [],
      "name": "votingDelay",
      "outputs": [
        {
          "internalType": "uint256",
          "name": "",
          "type": "uint256"
        }
      ],
      "stateMutability": "view",
      "type": "function"
    },
    {
      "inputs": [],
      "name": "votingPeriod",
      "outputs": [
        {
          "internalType": "uint256",
          "name": "",
          "type": "uint256"
        }
      ],
      "stateMutability": "view",
      "type": "function"
    },
    {
      "stateMutability": "payable",
      "type": "receive"
    }
  ],
  "bytecode": "0x6101806040523480156200001257600080fd5b506040516200486d3803806200486d83398101604081905262000035916200081f565b848487848660006040518060400160405280601081526020016f11dbdd995c9b9bdc90dbdb9d1c9858dd60821b81525080620000766200018160201b60201c565b815160208084019190912082518383012060e08290526101008190524660a0818152604080517f8b73c3c69bb8fe3d512ecc4cf759cc79239f7b179b0ffacaa9a75d522b39400f81880181905281830187905260608201869052608082019490945230818401528151808203909301835260c00190528051940193909320919290916080523060c05261012052505082516200011c92506000915060208401906200076a565b506200012a9050836200019c565b6200013582620001dd565b620001408162000284565b5050506001600160a01b0316610140526200015b81620002c5565b5062000167816200043d565b506001600160a01b03166101605250620009099350505050565b6040805180820190915260018152603160f81b602082015290565b60045460408051918252602082018390527fc565b045403dc03c2eea82b81a0465edad9e2e7fc4d97e11421c209da93d7a93910160405180910390a1600455565b60008111620002435760405162461bcd60e51b815260206004820152602760248201527f476f7665726e6f7253657474696e67733a20766f74696e6720706572696f6420604482015266746f6f206c6f7760c81b60648201526084015b60405180910390fd5b60055460408051918252602082018390527f7e3f7f0708a84de9203036abaa450dccc85ad5ff52f78c170f3edb55cf5e8828910160405180910390a1600555565b60065460408051918252602082018390527fccb45da8d5717e6c4544694297c4ba5cf151d455c9bb0ed4fc7a38411bc05461910160405180910390a1600655565b60648111156200034a5760405162461bcd60e51b815260206004820152604360248201527f476f7665726e6f72566f74657351756f72756d4672616374696f6e3a2071756f60448201527f72756d4e756d657261746f72206f7665722071756f72756d44656e6f6d696e616064820152623a37b960e91b608482015260a4016200023a565b600062000356620004a6565b90508015801590620003685750600954155b15620003e35760096000016040518060400160405280600063ffffffff168152602001620003a184620004d560201b620016591760201c565b6001600160e01b0390811690915282546001810184556000938452602093849020835194909301519091166401000000000263ffffffff909316929092179101555b620003fe8260096200054460201b620016c61790919060201c565b505060408051828152602081018490527f0553476bf02ef2726e8ce5ced78d63e26e602e4a2257b1f559418e24b4633997910160405180910390a15050565b600a54604080516001600160a01b03928316815291831660208301527f08f74ea46ef7894f65eabfb5e6e695de773a000b47c529ab559178069b226401910160405180910390a1600a80546001600160a01b0319166001600160a01b0392909216919091179055565b60095460009015620004ce57620004c96009620006a060201b620017f11760201c565b905090565b5060085490565b60006001600160e01b03821115620005405760405162461bcd60e51b815260206004820152602760248201527f53616665436173743a2076616c756520646f65736e27742066697420696e20326044820152663234206269747360c81b60648201526084016200023a565b5090565b81546000908190816200055786620006a0565b90506000821180156200059b575043866200057460018562000890565b81548110620005875762000587620008b6565b60009182526020909120015463ffffffff16145b156200060f57620005b785620004d560201b620016591760201c565b86620005c560018562000890565b81548110620005d857620005d8620008b6565b9060005260206000200160000160046101000a8154816001600160e01b0302191690836001600160e01b0316021790555062000697565b85600001604051806040016040528062000634436200070360201b6200184d1760201c565b63ffffffff1681526020016200065588620004d560201b620016591760201c565b6001600160e01b0390811690915282546001810184556000938452602093849020835194909301519091166401000000000263ffffffff909316929092179101555b95939450505050565b80546000908015620006f05782620006ba60018362000890565b81548110620006cd57620006cd620008b6565b60009182526020909120015464010000000090046001600160e01b0316620006f3565b60005b6001600160e01b03169392505050565b600063ffffffff821115620005405760405162461bcd60e51b815260206004820152602660248201527f53616665436173743a2076616c756520646f65736e27742066697420696e203360448201526532206269747360d01b60648201526084016200023a565b8280546200077890620008cc565b90600052602060002090601f0160209004810192826200079c5760008555620007e7565b82601f10620007b757805160ff1916838001178555620007e7565b82800160010185558215620007e7579182015b82811115620007e7578251825591602001919060010190620007ca565b50620005409291505b80821115620005405760008155600101620007f0565b6001600160a01b03811681146200081c57600080fd5b50565b60008060008060008060c087890312156200083957600080fd5b8651620008468162000806565b6020880151909650620008598162000806565b8095505060408701519350606087015192506080870151915060a0870151620008828162000806565b809150509295509295509295565b600082821015620008b157634e487b7160e01b600052601160045260246000fd5b500390565b634e487b7160e01b600052603260045260246000fd5b600181811c90821680620008e157607f821691505b602082108114156200090357634e487b7160e01b600052602260045260246000fd5b50919050565b60805160a05160c05160e05161010051610120516101405161016051613ee96200098460003960008181610506015261136401526000818161091f015281816123200152612551015260006126dc0152600061272b015260006127060152600061265f01526000612689015260006126b30152613ee96000f3fe60806040526004361061026b5760003560e01c80637b3c71d311610144578063c28bc2fa116100b6578063ea0217cf1161007a578063ea0217cf14610861578063eb9019d414610881578063ece40cc1146108a1578063f23a6e61146108c1578063f8ce560a146108ed578063fc0c546a1461090d57600080fd5b8063c28bc2fa14610789578063c59057e4146107a9578063d33219b4146107c9578063dd4e2ba5146107e7578063deaaa7cc1461082d57600080fd5b8063a890c91011610108578063a890c910146106c8578063ab58fb8e146106e8578063b58131b014610708578063bbc8a8361461071d578063bc197c811461073d578063c01f9e371461076957600080fd5b80637b3c71d31461063f5780637d5e81e21461065f57806397c3d3341461067f5780639a802a6d14610693578063a7713a70146106b357600080fd5b80633932abb1116101dd578063544ffc9c116101a1578063544ffc9c1461054057806354fd4d501461059557806356781388146105bf5780635f398a14146105df57806360c4247f146105ff57806370b0f6601461061f57600080fd5b80633932abb1146104485780633bccf4fd1461045d5780633e4f49e61461047d57806343859632146104aa578063452126fd146104f457600080fd5b8063150b7a021161022f578063150b7a021461034d578063152c1c7114610391578063160cbed7146103c15780632656227d146103e15780632d63f693146103f45780632fe3e2611461041457600080fd5b806301ffc9a71461029357806302a251a3146102c857806303420181146102eb57806306f3f9e61461030b57806306fdde031461032b57600080fd5b3661028e5730610279610941565b6001600160a01b03161461028c57600080fd5b005b600080fd5b34801561029f57600080fd5b506102b36102ae366004612f75565b61095a565b60405190151581526020015b60405180910390f35b3480156102d457600080fd5b506102dd61096b565b6040519081526020016102bf565b3480156102f757600080fd5b506102dd6103063660046130b3565b610976565b34801561031757600080fd5b5061028c610326366004613159565b610a6e565b34801561033757600080fd5b50610340610b06565b6040516102bf91906131ca565b34801561035957600080fd5b506103786103683660046131f2565b630a85bd0160e11b949350505050565b6040516001600160e01b031990911681526020016102bf565b34801561039d57600080fd5b506102b36103ac36600461325d565b600c6020526000908152604090205460ff1681565b3480156103cd57600080fd5b506102dd6103dc3660046133eb565b610b98565b6102dd6103ef3660046133eb565b610db6565b34801561040057600080fd5b506102dd61040f366004613159565b610ea3565b34801561042057600080fd5b506102dd7fb3b3f3b703cd84ce352197dcff232b1b5d3cfb2025ce47cf04742d0651f1af8881565b34801561045457600080fd5b506102dd610eda565b34801561046957600080fd5b506102dd61047836600461347a565b610ee5565b34801561048957600080fd5b5061049d610498366004613159565b610f5b565b6040516102bf91906134de565b3480156104b657600080fd5b506102b36104c5366004613506565b60008281526007602090815260408083206001600160a01b038516845260030190915290205460ff1692915050565b34801561050057600080fd5b506105287f000000000000000000000000000000000000000000000000000000000000000081565b6040516001600160a01b0390911681526020016102bf565b34801561054c57600080fd5b5061057a61055b366004613159565b6000908152600760205260409020805460018201546002909201549092565b604080519384526020840192909252908201526060016102bf565b3480156105a157600080fd5b506040805180820190915260018152603160f81b6020820152610340565b3480156105cb57600080fd5b506102dd6105da366004613536565b610f66565b3480156105eb57600080fd5b506102dd6105fa366004613562565b610f8f565b34801561060b57600080fd5b506102dd61061a366004613159565b610fd9565b34801561062b57600080fd5b5061028c61063a366004613159565b61106f565b34801561064b57600080fd5b506102dd61065a3660046135e5565b6110fb565b34801561066b57600080fd5b506102dd61067a36600461363e565b61114d565b34801561068b57600080fd5b5060646102dd565b34801561069f57600080fd5b506102dd6106ae3660046136f2565b611164565b3480156106bf57600080fd5b506102dd61117b565b3480156106d457600080fd5b5061028c6106e336600461325d565b611197565b3480156106f457600080fd5b506102dd610703366004613159565b611223565b34801561071457600080fd5b506102dd6112cc565b34801561072957600080fd5b5061028c61073836600461374a565b6112d7565b34801561074957600080fd5b506103786107583660046137aa565b63bc197c8160e01b95945050505050565b34801561077557600080fd5b506102dd610784366004613159565b6113f5565b34801561079557600080fd5b5061028c6107a436600461383d565b611424565b3480156107b557600080fd5b506102dd6107c43660046133eb565b6114f0565b3480156107d557600080fd5b50600a546001600160a01b0316610528565b3480156107f357600080fd5b506040805180820190915260208082527f737570706f72743d627261766f2671756f72756d3d666f722c6162737461696e90820152610340565b34801561083957600080fd5b506102dd7f150214d74d59b7d1e90c73fc22ef3d991dd0a76b046543d4d80ab92d2a50328f81565b34801561086d57600080fd5b5061028c61087c366004613159565b61152a565b34801561088d57600080fd5b506102dd61089c366004613880565b6115b6565b3480156108ad57600080fd5b5061028c6108bc366004613159565b6115c2565b3480156108cd57600080fd5b506103786108dc3660046138ac565b63f23a6e6160e01b95945050505050565b3480156108f957600080fd5b506102dd610908366004613159565b61164e565b34801561091957600080fd5b506105287f000000000000000000000000000000000000000000000000000000000000000081565b6000610955600a546001600160a01b031690565b905090565b6000610965826118b2565b92915050565b600061095560055490565b600080610a1a610a127fb3b3f3b703cd84ce352197dcff232b1b5d3cfb2025ce47cf04742d0651f1af888c8c8c8c6040516109b2929190613914565b60405180910390208b805190602001206040516020016109f7959493929190948552602085019390935260ff9190911660408401526060830152608082015260a00190565b604051602081830303815290604052805190602001206118d7565b868686611925565b9050610a608a828b8b8b8080601f0160208091040260200160405190810160405280939291908181526020018383808284376000920191909152508d9250611943915050565b9a9950505050505050505050565b610a76610941565b6001600160a01b0316336001600160a01b031614610aaf5760405162461bcd60e51b8152600401610aa690613924565b60405180910390fd5b30610ab8610941565b6001600160a01b031614610afa5760008036604051610ad8929190613914565b604051809103902090505b80610aee6002611aa5565b14610af857610ae3565b505b610b0381611b24565b50565b606060008054610b159061395b565b80601f0160208091040260200160405190810160405280929190818152602001828054610b419061395b565b8015610b8e5780601f10610b6357610100808354040283529160200191610b8e565b820191906000526020600020905b815481529060010190602001808311610b7157829003601f168201915b5050505050905090565b600080610ba7868686866114f0565b90506004610bb482610f5b565b6007811115610bc557610bc56134c8565b14610be25760405162461bcd60e51b8152600401610aa690613996565b600a546040805163793d064960e11b815290516000926001600160a01b03169163f27a0c92916004808301926020929190829003018186803b158015610c2757600080fd5b505afa158015610c3b573d6000803e3d6000fd5b505050506040513d601f19601f82011682018060405250810190610c5f91906139d7565b600a5460405163b1c5f42760e01b81529192506001600160a01b03169063b1c5f42790610c99908a908a908a906000908b90600401613ab9565b60206040518083038186803b158015610cb157600080fd5b505afa158015610cc5573d6000803e3d6000fd5b505050506040513d601f19601f82011682018060405250810190610ce991906139d7565b6000838152600b602052604080822092909255600a5491516308f2a0bb60e41b81526001600160a01b0390921691638f2a0bb091610d34918b918b918b91908b908990600401613b07565b600060405180830381600087803b158015610d4e57600080fd5b505af1158015610d62573d6000803e3d6000fd5b505050507f9a2e42fd6722813d69113e7d0079d3d940171428df7373df9c7f7617cfda2892828242610d949190613b75565b6040805192835260208301919091520160405180910390a15095945050505050565b600080610dc5868686866114f0565b90506000610dd282610f5b565b90506004816007811115610de857610de86134c8565b1480610e0557506005816007811115610e0357610e036134c8565b145b610e215760405162461bcd60e51b8152600401610aa690613996565b600082815260016020818152604092839020600201805460ff191690921790915590518381527f712ae1383f79ac853f8d882153778e0260ef8f03b504e2866e0593e04d2b291f910160405180910390a1610e7f8288888888611c71565b610e8c8288888888611d13565b610e998288888888611d20565b5095945050505050565b60008181526001602090815260408083208151928301909152546001600160401b0316908190525b6001600160401b031692915050565b600061095560045490565b604080517f150214d74d59b7d1e90c73fc22ef3d991dd0a76b046543d4d80ab92d2a50328f602082015290810186905260ff851660608201526000908190610f3390610a12906080016109f7565b9050610f5087828860405180602001604052806000815250611d59565b979650505050505050565b600061096582611d7c565b600080339050610f8784828560405180602001604052806000815250611d59565b949350505050565b600080339050610f5087828888888080601f0160208091040260200160405190810160405280939291908181526020018383808284376000920191909152508a9250611943915050565b60095460009080610fee575050600854919050565b60006009610ffd600184613b8d565b8154811061100d5761100d613ba4565b60009182526020918290206040805180820190915291015463ffffffff81168083526401000000009091046001600160e01b0316928201929092529150841061106457602001516001600160e01b03169392505050565b610f87600985611ee4565b611077610941565b6001600160a01b0316336001600160a01b0316146110a75760405162461bcd60e51b8152600401610aa690613924565b306110b0610941565b6001600160a01b0316146110f257600080366040516110d0929190613914565b604051809103902090505b806110e66002611aa5565b146110f0576110db565b505b610b0381611ff3565b60008033905061114386828787878080601f016020809104026020016040519081016040528093929190818152602001838380828437600092019190915250611d5992505050565b9695505050505050565b600061115b85858585612034565b95945050505050565b60006111718484846122f7565b90505b9392505050565b600954600090156111905761095560096117f1565b5060085490565b61119f610941565b6001600160a01b0316336001600160a01b0316146111cf5760405162461bcd60e51b8152600401610aa690613924565b306111d8610941565b6001600160a01b03161461121a57600080366040516111f8929190613914565b604051809103902090505b8061120e6002611aa5565b1461121857611203565b505b610b038161239c565b600a546000828152600b602052604080822054905163d45c443560e01b81526004810191909152909182916001600160a01b039091169063d45c44359060240160206040518083038186803b15801561127b57600080fd5b505afa15801561128f573d6000803e3d6000fd5b505050506040513d601f19601f820116820180604052508101906112b391906139d7565b9050806001146112c35780611174565b60009392505050565b600061095560065490565b3330146113315760405162461bcd60e51b815260206004820152602260248201527f4d7573742062652063616c6c656420627920476f7665726e6f72436f6e74726160448201526118dd60f21b6064820152608401610aa6565b6001600160a01b038084166000908152600c602052604090819020805460ff191660011790555163a2fb6d6f60e01b81527f00000000000000000000000000000000000000000000000000000000000000009091169063a2fb6d6f9061139d9085908590600401613bba565b602060405180830381600087803b1580156113b757600080fd5b505af11580156113cb573d6000803e3d6000fd5b505050506040513d601f19601f820116820180604052508101906113ef91906139d7565b50505050565b60008181526001602081815260408084208151928301909152909101546001600160401b031690819052610ecb565b61142c610941565b6001600160a01b0316336001600160a01b03161461145c5760405162461bcd60e51b8152600401610aa690613924565b30611465610941565b6001600160a01b0316146114a75760008036604051611485929190613914565b604051809103902090505b8061149b6002611aa5565b146114a557611490565b505b6114e98483838080601f016020809104026020016040519081016040528093929190818152602001838380828437600092019190915250889250612405915050565b5050505050565b6000848484846040516020016115099493929190613bdc565b60408051601f19818403018152919052805160209091012095945050505050565b611532610941565b6001600160a01b0316336001600160a01b0316146115625760405162461bcd60e51b8152600401610aa690613924565b3061156b610941565b6001600160a01b0316146115ad576000803660405161158b929190613914565b604051809103902090505b806115a16002611aa5565b146115ab57611596565b505b610b038161242b565b600061117483836124cc565b6115ca610941565b6001600160a01b0316336001600160a01b0316146115fa5760405162461bcd60e51b8152600401610aa690613924565b30611603610941565b6001600160a01b0316146116455760008036604051611623929190613914565b604051809103902090505b806116396002611aa5565b146116435761162e565b505b610b03816124ed565b60006109658261252e565b60006001600160e01b038211156116c25760405162461bcd60e51b815260206004820152602760248201527f53616665436173743a2076616c756520646f65736e27742066697420696e20326044820152663234206269747360c81b6064820152608401610aa6565b5090565b81546000908190816116d7866117f1565b9050600082118015611715575043866116f1600185613b8d565b8154811061170157611701613ba4565b60009182526020909120015463ffffffff16145b156117755761172385611659565b8661172f600185613b8d565b8154811061173f5761173f613ba4565b9060005260206000200160000160046101000a8154816001600160e01b0302191690836001600160e01b031602179055506117e3565b85600001604051806040016040528061178d4361184d565b63ffffffff1681526020016117a188611659565b6001600160e01b0390811690915282546001810184556000938452602093849020835194909301519091166401000000000263ffffffff909316929092179101555b9250839150505b9250929050565b8054600090801561183a5782611808600183613b8d565b8154811061181857611818613ba4565b60009182526020909120015464010000000090046001600160e01b031661183d565b60005b6001600160e01b03169392505050565b600063ffffffff8211156116c25760405162461bcd60e51b815260206004820152602660248201527f53616665436173743a2076616c756520646f65736e27742066697420696e203360448201526532206269747360d01b6064820152608401610aa6565b60006001600160e01b03198216636e665ced60e01b14806109655750610965826125e7565b60006109656118e4612652565b8360405161190160f01b6020820152602281018390526042810182905260009060620160405160208183030381529060405280519060200120905092915050565b600080600061193687878787612779565b91509150610e9981612866565b600085815260016020819052604082209061195d88610f5b565b600781111561196e5761196e6134c8565b146119c75760405162461bcd60e51b815260206004820152602360248201527f476f7665726e6f723a20766f7465206e6f742063757272656e746c792061637460448201526269766560e81b6064820152608401610aa6565b604080516020810190915281546001600160401b0316908190526000906119f0908890866122f7565b90506119ff8888888488612a21565b8351611a5157866001600160a01b03167fb8e138887d0aa13bab447e82de9d5c1777041ecd21ca36ba824ff1e6c07ddda489888489604051611a449493929190613c27565b60405180910390a2610f50565b866001600160a01b03167fe2babfbac5889a709b63bb7f598b324e08bc5a4fb9ec647fb3cbc9ec07eb87128988848989604051611a92959493929190613c4f565b60405180910390a2979650505050505050565b6000611ac08254600f81810b600160801b909204900b131590565b15611ade57604051631ed9509560e11b815260040160405180910390fd5b508054600f0b6000818152600180840160205260408220805492905583546fffffffffffffffffffffffffffffffff191692016001600160801b03169190911790915590565b6064811115611ba75760405162461bcd60e51b815260206004820152604360248201527f476f7665726e6f72566f74657351756f72756d4672616374696f6e3a2071756f60448201527f72756d4e756d657261746f72206f7665722071756f72756d44656e6f6d696e616064820152623a37b960e91b608482015260a401610aa6565b6000611bb161117b565b90508015801590611bc25750600954155b15611c2757604080518082019091526000815260099060208101611be584611659565b6001600160e01b0390811690915282546001810184556000938452602093849020835194909301519091166401000000000263ffffffff909316929092179101555b611c326009836116c6565b505060408051828152602081018490527f0553476bf02ef2726e8ce5ced78d63e26e602e4a2257b1f559418e24b4633997910160405180910390a15050565b30611c7a610941565b6001600160a01b0316146114e95760005b8451811015611d0b57306001600160a01b0316858281518110611cb057611cb0613ba4565b60200260200101516001600160a01b03161415611cfb57611cfb838281518110611cdc57611cdc613ba4565b6020026020010151805190602001206002612ba090919063ffffffff16565b611d0481613c95565b9050611c8b565b505050505050565b6114e98585858585612bdc565b30611d29610941565b6001600160a01b0316146114e957600254600f81810b600160801b909204900b13156114e95760006002556114e9565b600061115b85858585611d7760408051602081019091526000815290565b611943565b600080611d8883612c50565b90506004816007811115611d9e57611d9e6134c8565b14611da95792915050565b6000838152600b602052604090205480611dc4575092915050565b600a54604051632ab0f52960e01b8152600481018390526001600160a01b0390911690632ab0f5299060240160206040518083038186803b158015611e0857600080fd5b505afa158015611e1c573d6000803e3d6000fd5b505050506040513d601f19601f82011682018060405250810190611e409190613cb0565b15611e4f575060079392505050565b600a54604051632c258a9f60e11b8152600481018390526001600160a01b039091169063584b153e9060240160206040518083038186803b158015611e9357600080fd5b505afa158015611ea7573d6000803e3d6000fd5b505050506040513d601f19601f82011682018060405250810190611ecb9190613cb0565b15611eda575060059392505050565b5060029392505050565b6000438210611f355760405162461bcd60e51b815260206004820181905260248201527f436865636b706f696e74733a20626c6f636b206e6f7420796574206d696e65646044820152606401610aa6565b825460005b81811015611f9a576000611f4e8284612d5c565b905084866000018281548110611f6657611f66613ba4565b60009182526020909120015463ffffffff161115611f8657809250611f94565b611f91816001613b75565b91505b50611f3a565b8115611fde5784611fac600184613b8d565b81548110611fbc57611fbc613ba4565b60009182526020909120015464010000000090046001600160e01b0316611fe1565b60005b6001600160e01b031695945050505050565b60045460408051918252602082018390527fc565b045403dc03c2eea82b81a0465edad9e2e7fc4d97e11421c209da93d7a93910160405180910390a1600455565b600061203e6112cc565b61204d3361089c600143613b8d565b10156120b55760405162461bcd60e51b815260206004820152603160248201527f476f7665726e6f723a2070726f706f73657220766f7465732062656c6f7720706044820152701c9bdc1bdcd85b081d1a1c995cda1bdb19607a1b6064820152608401610aa6565b60006120ca86868686805190602001206114f0565b905084518651146120ed5760405162461bcd60e51b8152600401610aa690613cd2565b835186511461210e5760405162461bcd60e51b8152600401610aa690613cd2565b600086511161215f5760405162461bcd60e51b815260206004820152601860248201527f476f7665726e6f723a20656d7074792070726f706f73616c00000000000000006044820152606401610aa6565b600081815260016020908152604091829020825191820190925281546001600160401b031690819052156121df5760405162461bcd60e51b815260206004820152602160248201527f476f7665726e6f723a2070726f706f73616c20616c72656164792065786973746044820152607360f81b6064820152608401610aa6565b60006121f16121ec610eda565b612d77565b6121fa43612d77565b6122049190613d13565b905060006122136121ec61096b565b61221d9083613d13565b835467ffffffffffffffff19166001600160401b038416178455905060018301805467ffffffffffffffff19166001600160401b0383161790557f7d84a6263ae0d98d3329bd7b46bb4e8d6f98cd35a7adb45c274c8b7fd5ebd5e084338b8b8d516001600160401b0381111561229557612295612ff6565b6040519080825280602002602001820160405280156122c857816020015b60608152602001906001900390816122b35790505b508c88888e6040516122e299989796959493929190613d3e565b60405180910390a15091979650505050505050565b604051630748d63560e31b81526001600160a01b038481166004830152602482018490526000917f000000000000000000000000000000000000000000000000000000000000000090911690633a46b1a89060440160206040518083038186803b15801561236457600080fd5b505afa158015612378573d6000803e3d6000fd5b505050506040513d601f19601f8201168201806040525081019061117191906139d7565b600a54604080516001600160a01b03928316815291831660208301527f08f74ea46ef7894f65eabfb5e6e695de773a000b47c529ab559178069b226401910160405180910390a1600a80546001600160a01b0319166001600160a01b0392909216919091179055565b6060611171848484604051806060016040528060298152602001613e8b60299139612ddf565b6000811161248b5760405162461bcd60e51b815260206004820152602760248201527f476f7665726e6f7253657474696e67733a20766f74696e6720706572696f6420604482015266746f6f206c6f7760c81b6064820152608401610aa6565b60055460408051918252602082018390527f7e3f7f0708a84de9203036abaa450dccc85ad5ff52f78c170f3edb55cf5e8828910160405180910390a1600555565b600061117483836124e860408051602081019091526000815290565b6122f7565b60065460408051918252602082018390527fccb45da8d5717e6c4544694297c4ba5cf151d455c9bb0ed4fc7a38411bc05461910160405180910390a1600655565b6000606461253b83610fd9565b604051632394e7a360e21b8152600481018590527f00000000000000000000000000000000000000000000000000000000000000006001600160a01b031690638e539e8c9060240160206040518083038186803b15801561259b57600080fd5b505afa1580156125af573d6000803e3d6000fd5b505050506040513d601f19601f820116820180604052508101906125d391906139d7565b6125dd9190613e2d565b6109659190613e4c565b60006001600160e01b0319821663bf26d89760e01b148061261857506001600160e01b031982166379dd796f60e01b145b8061263357506001600160e01b03198216630271189760e51b145b8061096557506301ffc9a760e01b6001600160e01b0319831614610965565b6000306001600160a01b037f0000000000000000000000000000000000000000000000000000000000000000161480156126ab57507f000000000000000000000000000000000000000000000000000000000000000046145b156126d557507f000000000000000000000000000000000000000000000000000000000000000090565b50604080517f00000000000000000000000000000000000000000000000000000000000000006020808301919091527f0000000000000000000000000000000000000000000000000000000000000000828401527f000000000000000000000000000000000000000000000000000000000000000060608301524660808301523060a0808401919091528351808403909101815260c0909201909252805191012090565b6000807f7fffffffffffffffffffffffffffffff5d576e7357a4501ddfe92f46681b20a08311156127b0575060009050600361285d565b8460ff16601b141580156127c857508460ff16601c14155b156127d9575060009050600461285d565b6040805160008082526020820180845289905260ff881692820192909252606081018690526080810185905260019060a0016020604051602081039080840390855afa15801561282d573d6000803e3d6000fd5b5050604051601f1901519150506001600160a01b0381166128565760006001925092505061285d565b9150600090505b94509492505050565b600081600481111561287a5761287a6134c8565b14156128835750565b6001816004811115612897576128976134c8565b14156128e55760405162461bcd60e51b815260206004820152601860248201527f45434453413a20696e76616c6964207369676e617475726500000000000000006044820152606401610aa6565b60028160048111156128f9576128f96134c8565b14156129475760405162461bcd60e51b815260206004820152601f60248201527f45434453413a20696e76616c6964207369676e6174757265206c656e677468006044820152606401610aa6565b600381600481111561295b5761295b6134c8565b14156129b45760405162461bcd60e51b815260206004820152602260248201527f45434453413a20696e76616c6964207369676e6174757265202773272076616c604482015261756560f01b6064820152608401610aa6565b60048160048111156129c8576129c86134c8565b1415610b035760405162461bcd60e51b815260206004820152602260248201527f45434453413a20696e76616c6964207369676e6174757265202776272076616c604482015261756560f01b6064820152608401610aa6565b60008581526007602090815260408083206001600160a01b0388168452600381019092529091205460ff1615612aa95760405162461bcd60e51b815260206004820152602760248201527f476f7665726e6f72566f74696e6753696d706c653a20766f746520616c726561604482015266191e4818d85cdd60ca1b6064820152608401610aa6565b6001600160a01b03851660009081526003820160205260408120805460ff1916600117905560ff168460ff161415612afa5782816000016000828254612aef9190613b75565b90915550611d0b9050565b60ff841660011415612b1a5782816001016000828254612aef9190613b75565b60ff841660021415612b3a5782816002016000828254612aef9190613b75565b60405162461bcd60e51b815260206004820152603560248201527f476f7665726e6f72566f74696e6753696d706c653a20696e76616c69642076616044820152746c756520666f7220656e756d20566f74655479706560581b6064820152608401610aa6565b8154600160801b90819004600f0b6000818152600180860160205260409091209390935583546001600160801b03908116939091011602179055565b600a5460405163e38335e560e01b81526001600160a01b039091169063e38335e5903490612c17908890889088906000908990600401613ab9565b6000604051808303818588803b158015612c3057600080fd5b505af1158015612c44573d6000803e3d6000fd5b50505050505050505050565b6000818152600160205260408120600281015460ff1615612c745750600792915050565b6002810154610100900460ff1615612c8f5750600292915050565b6000612c9a84610ea3565b905080612ce95760405162461bcd60e51b815260206004820152601d60248201527f476f7665726e6f723a20756e6b6e6f776e2070726f706f73616c2069640000006044820152606401610aa6565b438110612cfa575060009392505050565b6000612d05856113f5565b9050438110612d1957506001949350505050565b612d2285612f05565b8015612d41575060008581526007602052604090208054600190910154115b15612d5157506004949350505050565b506003949350505050565b6000612d6b6002848418613e4c565b61117490848416613b75565b60006001600160401b038211156116c25760405162461bcd60e51b815260206004820152602660248201527f53616665436173743a2076616c756520646f65736e27742066697420696e203660448201526534206269747360d01b6064820152608401610aa6565b606082471015612e405760405162461bcd60e51b815260206004820152602660248201527f416464726573733a20696e73756666696369656e742062616c616e636520666f6044820152651c8818d85b1b60d21b6064820152608401610aa6565b6001600160a01b0385163b612e975760405162461bcd60e51b815260206004820152601d60248201527f416464726573733a2063616c6c20746f206e6f6e2d636f6e74726163740000006044820152606401610aa6565b600080866001600160a01b03168587604051612eb39190613e6e565b60006040518083038185875af1925050503d8060008114612ef0576040519150601f19603f3d011682016040523d82523d6000602084013e612ef5565b606091505b5091509150610f50828286612f3c565b600081815260076020526040812060028101546001820154612f279190613b75565b612f3361090885610ea3565b11159392505050565b60608315612f4b575081611174565b825115612f5b5782518084602001fd5b8160405162461bcd60e51b8152600401610aa691906131ca565b600060208284031215612f8757600080fd5b81356001600160e01b03198116811461117457600080fd5b803560ff81168114612fb057600080fd5b919050565b60008083601f840112612fc757600080fd5b5081356001600160401b03811115612fde57600080fd5b6020830191508360208285010111156117ea57600080fd5b634e487b7160e01b600052604160045260246000fd5b604051601f8201601f191681016001600160401b038111828210171561303457613034612ff6565b604052919050565b60006001600160401b0383111561305557613055612ff6565b613068601f8401601f191660200161300c565b905082815283838301111561307c57600080fd5b828260208301376000602084830101529392505050565b600082601f8301126130a457600080fd5b6111748383356020850161303c565b60008060008060008060008060e0898b0312156130cf57600080fd5b883597506130df60208a01612f9f565b965060408901356001600160401b03808211156130fb57600080fd5b6131078c838d01612fb5565b909850965060608b013591508082111561312057600080fd5b5061312d8b828c01613093565b94505061313c60808a01612f9f565b925060a0890135915060c089013590509295985092959890939650565b60006020828403121561316b57600080fd5b5035919050565b60005b8381101561318d578181015183820152602001613175565b838111156113ef5750506000910152565b600081518084526131b6816020860160208601613172565b601f01601f19169290920160200192915050565b602081526000611174602083018461319e565b6001600160a01b0381168114610b0357600080fd5b6000806000806080858703121561320857600080fd5b8435613213816131dd565b93506020850135613223816131dd565b92506040850135915060608501356001600160401b0381111561324557600080fd5b61325187828801613093565b91505092959194509250565b60006020828403121561326f57600080fd5b8135611174816131dd565b60006001600160401b0382111561329357613293612ff6565b5060051b60200190565b600082601f8301126132ae57600080fd5b813560206132c36132be8361327a565b61300c565b82815260059290921b840181019181810190868411156132e257600080fd5b8286015b848110156133065780356132f9816131dd565b83529183019183016132e6565b509695505050505050565b600082601f83011261332257600080fd5b813560206133326132be8361327a565b82815260059290921b8401810191818101908684111561335157600080fd5b8286015b848110156133065780358352918301918301613355565b600082601f83011261337d57600080fd5b8135602061338d6132be8361327a565b82815260059290921b840181019181810190868411156133ac57600080fd5b8286015b848110156133065780356001600160401b038111156133cf5760008081fd5b6133dd8986838b0101613093565b8452509183019183016133b0565b6000806000806080858703121561340157600080fd5b84356001600160401b038082111561341857600080fd5b6134248883890161329d565b9550602087013591508082111561343a57600080fd5b61344688838901613311565b9450604087013591508082111561345c57600080fd5b506134698782880161336c565b949793965093946060013593505050565b600080600080600060a0868803121561349257600080fd5b853594506134a260208701612f9f565b93506134b060408701612f9f565b94979396509394606081013594506080013592915050565b634e487b7160e01b600052602160045260246000fd5b602081016008831061350057634e487b7160e01b600052602160045260246000fd5b91905290565b6000806040838503121561351957600080fd5b82359150602083013561352b816131dd565b809150509250929050565b6000806040838503121561354957600080fd5b8235915061355960208401612f9f565b90509250929050565b60008060008060006080868803121561357a57600080fd5b8535945061358a60208701612f9f565b935060408601356001600160401b03808211156135a657600080fd5b6135b289838a01612fb5565b909550935060608801359150808211156135cb57600080fd5b506135d888828901613093565b9150509295509295909350565b600080600080606085870312156135fb57600080fd5b8435935061360b60208601612f9f565b925060408501356001600160401b0381111561362657600080fd5b61363287828801612fb5565b95989497509550505050565b6000806000806080858703121561365457600080fd5b84356001600160401b038082111561366b57600080fd5b6136778883890161329d565b9550602087013591508082111561368d57600080fd5b61369988838901613311565b945060408701359150808211156136af57600080fd5b6136bb8883890161336c565b935060608701359150808211156136d157600080fd5b508501601f810187136136e357600080fd5b6132518782356020840161303c565b60008060006060848603121561370757600080fd5b8335613712816131dd565b92506020840135915060408401356001600160401b0381111561373457600080fd5b61374086828701613093565b9150509250925092565b60008060006060848603121561375f57600080fd5b833561376a816131dd565b925060208401356001600160401b03808216821461378757600080fd5b9092506040850135908082111561379d57600080fd5b5061374086828701613093565b600080600080600060a086880312156137c257600080fd5b85356137cd816131dd565b945060208601356137dd816131dd565b935060408601356001600160401b03808211156137f957600080fd5b61380589838a01613311565b9450606088013591508082111561381b57600080fd5b61382789838a01613311565b935060808801359150808211156135cb57600080fd5b6000806000806060858703121561385357600080fd5b843561385e816131dd565b93506020850135925060408501356001600160401b0381111561362657600080fd5b6000806040838503121561389357600080fd5b823561389e816131dd565b946020939093013593505050565b600080600080600060a086880312156138c457600080fd5b85356138cf816131dd565b945060208601356138df816131dd565b9350604086013592506060860135915060808601356001600160401b0381111561390857600080fd5b6135d888828901613093565b8183823760009101908152919050565b60208082526018908201527f476f7665726e6f723a206f6e6c79476f7665726e616e63650000000000000000604082015260600190565b600181811c9082168061396f57607f821691505b6020821081141561399057634e487b7160e01b600052602260045260246000fd5b50919050565b60208082526021908201527f476f7665726e6f723a2070726f706f73616c206e6f74207375636365737366756040820152601b60fa1b606082015260800190565b6000602082840312156139e957600080fd5b5051919050565b600081518084526020808501945080840160005b83811015613a295781516001600160a01b031687529582019590820190600101613a04565b509495945050505050565b600081518084526020808501945080840160005b83811015613a2957815187529582019590820190600101613a48565b600081518084526020808501808196508360051b8101915082860160005b85811015613aac578284038952613a9a84835161319e565b98850198935090840190600101613a82565b5091979650505050505050565b60a081526000613acc60a08301886139f0565b8281036020840152613ade8188613a34565b90508281036040840152613af28187613a64565b60608401959095525050608001529392505050565b60c081526000613b1a60c08301896139f0565b8281036020840152613b2c8189613a34565b90508281036040840152613b408188613a64565b60608401969096525050608081019290925260a0909101529392505050565b634e487b7160e01b600052601160045260246000fd5b60008219821115613b8857613b88613b5f565b500190565b600082821015613b9f57613b9f613b5f565b500390565b634e487b7160e01b600052603260045260246000fd5b6001600160401b0383168152604060208201526000611171604083018461319e565b608081526000613bef60808301876139f0565b8281036020840152613c018187613a34565b90508281036040840152613c158186613a64565b91505082606083015295945050505050565b84815260ff84166020820152826040820152608060608201526000611143608083018461319e565b85815260ff8516602082015283604082015260a060608201526000613c7760a083018561319e565b8281036080840152613c89818561319e565b98975050505050505050565b6000600019821415613ca957613ca9613b5f565b5060010190565b600060208284031215613cc257600080fd5b8151801515811461117457600080fd5b60208082526021908201527f476f7665726e6f723a20696e76616c69642070726f706f73616c206c656e67746040820152600d60fb1b606082015260800190565b60006001600160401b03808316818516808303821115613d3557613d35613b5f565b01949350505050565b60006101208b8352602060018060a01b038c1681850152816040850152613d678285018c6139f0565b91508382036060850152613d7b828b613a34565b915083820360808501528189518084528284019150828160051b850101838c0160005b83811015613dcc57601f19878403018552613dba83835161319e565b94860194925090850190600101613d9e565b505086810360a0880152613de0818c613a64565b945050505050613dfb60c08401876001600160401b03169052565b6001600160401b03851660e0840152828103610100840152613e1d818561319e565b9c9b505050505050505050505050565b6000816000190483118215151615613e4757613e47613b5f565b500290565b600082613e6957634e487b7160e01b600052601260045260246000fd5b500490565b60008251613e80818460208701613172565b919091019291505056fe416464726573733a206c6f772d6c6576656c2063616c6c20776974682076616c7565206661696c6564a2646970667358221220a4873a5a97a46e0d03f1a7e36150434ee76d019e5ac60af9f10aa446bbbe515464736f6c63430008090033",
  "linkReferences": {},
  "deployedLinkReferences": {}
}