{
  "_format": "hh-sol-artifact-1",
  "contractName": "DAOPoint",
  "sourceName": "contracts/DAOPoint.sol",
  "abi": [
    {
      "inputs": [
        {
          "internalType": "address",
          "name": "governor",
          "type": "address"
        },
        {
          "internalType": "string",
          "name": "_serverID",
          "type": "string"
        }
      ],
      "stateMutability": "nonpayable",
      "type": "constructor"
    },
    {
      "anonymous": false,
      "inputs": [
        {
          "indexed": true,
          "internalType": "address",
          "name": "previousOwner",
          "type": "address"
        },
        {
          "indexed": true,
          "internalType": "address",
          "name": "newOwner",
          "type": "address"
        }
      ],
      "name": "OwnershipTransferred",
      "type": "event"
    },
    {
      "anonymous": false,
      "inputs": [
        {
          "indexed": false,
          "internalType": "uint256",
          "name": "requestId",
          "type": "uint256"
        },
        {
          "indexed": false,
          "internalType": "string",
          "name": "SERVER_ID",
          "type": "string"
        },
        {
          "indexed": false,
          "internalType": "string",
          "name": "USER_ID",
          "type": "string"
        }
      ],
      "name": "RequestMade",
      "type": "event"
    },
    {
      "anonymous": false,
      "inputs": [
        {
          "indexed": false,
          "internalType": "uint256",
          "name": "requestId",
          "type": "uint256"
        }
      ],
      "name": "ResponseReceived",
      "type": "event"
    },
    {
      "inputs": [
        {
          "internalType": "string",
          "name": "USER_ID",
          "type": "string"
        }
      ],
      "name": "banUser",
      "outputs": [],
      "stateMutability": "nonpayable",
      "type": "function"
    },
    {
      "inputs": [
        {
          "internalType": "uint256",
          "name": "_requestId",
          "type": "uint256"
        },
        {
          "internalType": "uint64",
          "name": "_midpointId",
          "type": "uint64"
        }
      ],
      "name": "callback",
      "outputs": [],
      "stateMutability": "nonpayable",
      "type": "function"
    },
    {
      "inputs": [],
      "name": "owner",
      "outputs": [
        {
          "internalType": "address",
          "name": "",
          "type": "address"
        }
      ],
      "stateMutability": "view",
      "type": "function"
    },
    {
      "inputs": [],
      "name": "renounceOwnership",
      "outputs": [],
      "stateMutability": "nonpayable",
      "type": "function"
    },
    {
      "inputs": [
        {
          "internalType": "address",
          "name": "newOwner",
          "type": "address"
        }
      ],
      "name": "transferOwnership",
      "outputs": [],
      "stateMutability": "nonpayable",
      "type": "function"
    },
    {
      "inputs": [
        {
          "internalType": "string",
          "name": "USER_ID",
          "type": "string"
        }
      ],
      "name": "unBanUser",
      "outputs": [],
      "stateMutability": "nonpayable",
      "type": "function"
    }
  ],
  "bytecode": "0x60806040523480156200001157600080fd5b5060405162000b5238038062000b52833981016040819052620000349162000255565b6200003f3362000068565b6200004a82620000b8565b80516200005f90600190602084019062000199565b50505062000392565b600080546001600160a01b038381166001600160a01b0319831681178455604051919092169283917f8be0079c531659141344cd1fd0a4f28419497f9722a3daafe3b4186f6b6457e09190a35050565b620000c26200013b565b6001600160a01b0381166200012d5760405162461bcd60e51b815260206004820152602660248201527f4f776e61626c653a206e6577206f776e657220697320746865207a65726f206160448201526564647265737360d01b60648201526084015b60405180910390fd5b620001388162000068565b50565b6000546001600160a01b03163314620001975760405162461bcd60e51b815260206004820181905260248201527f4f776e61626c653a2063616c6c6572206973206e6f7420746865206f776e6572604482015260640162000124565b565b828054620001a79062000355565b90600052602060002090601f016020900481019282620001cb576000855562000216565b82601f10620001e657805160ff191683800117855562000216565b8280016001018555821562000216579182015b8281111562000216578251825591602001919060010190620001f9565b506200022492915062000228565b5090565b5b8082111562000224576000815560010162000229565b634e487b7160e01b600052604160045260246000fd5b600080604083850312156200026957600080fd5b82516001600160a01b03811681146200028157600080fd5b602084810151919350906001600160401b0380821115620002a157600080fd5b818601915086601f830112620002b657600080fd5b815181811115620002cb57620002cb6200023f565b604051601f8201601f19908116603f01168101908382118183101715620002f657620002f66200023f565b8160405282815289868487010111156200030f57600080fd5b600093505b8284101562000333578484018601518185018701529285019262000314565b82841115620003455760008684830101525b8096505050505050509250929050565b600181811c908216806200036a57607f821691505b602082108114156200038c57634e487b7160e01b600052602260045260246000fd5b50919050565b6107b080620003a26000396000f3fe608060405234801561001057600080fd5b50600436106100625760003560e01c80630ffae4c614610067578063715018a61461007c5780638da5cb5b14610084578063bad433fc146100a3578063cb3eb567146100b6578063f2fde38b146100c9575b600080fd5b61007a61007536600461043f565b6100dc565b005b61007a6101e2565b600054604080516001600160a01b039092168252519081900360200190f35b61007a6100b13660046104f0565b6101f6565b61007a6100c436600461043f565b610295565b61007a6100d736600461052d565b610306565b6100e461037f565b6040516000906100ff906001908390859082906020016105c8565b60408051601f198184030181529082905263a2fb6d6f60e01b825291506000907347a4905d4c2eabd58abbdfecbaeb07f1a29b660c9063a2fb6d6f9061014d906101b2908690600401610696565b602060405180830381600087803b15801561016757600080fd5b505af115801561017b573d6000803e3d6000fd5b505050506040513d601f19601f8201168201806040525081019061019f91906106c1565b90507fbaa1435617517887ddde4c973bfcd3c7e8a4bf9ac8a02eae60885c4e67eee9f6816001856040516101d5939291906106da565b60405180910390a1505050565b6101ea61037f565b6101f460006103d9565b565b3273c0ffee4a3a2d488b138d090b8112875b90b5e6d91461025e5760405162461bcd60e51b815260206004820152601860248201527f496e76616c69642063616c6c6261636b2061646472657373000000000000000060448201526064015b60405180910390fd5b6040518281527f2aa502e284148fdbdb0844b15f1e8aa5b55b081330864831c0c96a38de63c09a9060200160405180910390a15050565b61029d61037f565b6040516000906102b8906001908390859082906020016105c8565b60408051601f198184030181529082905263a2fb6d6f60e01b825291506000907347a4905d4c2eabd58abbdfecbaeb07f1a29b660c9063a2fb6d6f9061014d9061019e908690600401610696565b61030e61037f565b6001600160a01b0381166103735760405162461bcd60e51b815260206004820152602660248201527f4f776e61626c653a206e6577206f776e657220697320746865207a65726f206160448201526564647265737360d01b6064820152608401610255565b61037c816103d9565b50565b6000546001600160a01b031633146101f45760405162461bcd60e51b815260206004820181905260248201527f4f776e61626c653a2063616c6c6572206973206e6f7420746865206f776e65726044820152606401610255565b600080546001600160a01b038381166001600160a01b0319831681178455604051919092169283917f8be0079c531659141344cd1fd0a4f28419497f9722a3daafe3b4186f6b6457e09190a35050565b634e487b7160e01b600052604160045260246000fd5b60006020828403121561045157600080fd5b813567ffffffffffffffff8082111561046957600080fd5b818401915084601f83011261047d57600080fd5b81358181111561048f5761048f610429565b604051601f8201601f19908116603f011681019083821181831017156104b7576104b7610429565b816040528281528760208487010111156104d057600080fd5b826020860160208301376000928101602001929092525095945050505050565b6000806040838503121561050357600080fd5b82359150602083013567ffffffffffffffff8116811461052257600080fd5b809150509250929050565b60006020828403121561053f57600080fd5b81356001600160a01b038116811461055657600080fd5b9392505050565b600181811c9082168061057157607f821691505b6020821081141561059257634e487b7160e01b600052602260045260246000fd5b50919050565b60005b838110156105b357818101518382015260200161059b565b838111156105c2576000848401525b50505050565b60008086546105d68161055d565b600182811680156105ee57600181146105ff5761062e565b60ff1984168752828701945061062e565b8a60005260208060002060005b858110156106255781548a82015290840190820161060c565b50505082870194505b506001600160f81b03198981168552885190935091506106548282860160208b01610598565b9590911691019384015250506002019392505050565b60008151808452610682816020860160208601610598565b601f01601f19169290920160200192915050565b67ffffffffffffffff831681526040602082015260006106b9604083018461066a565b949350505050565b6000602082840312156106d357600080fd5b5051919050565b83815260006020606081840152600085546106f48161055d565b8060608701526080600180841660008114610716576001811461072a57610758565b60ff1985168984015260a089019550610758565b8a6000528660002060005b858110156107505781548b8201860152908301908801610735565b8a0184019650505b5050505050838103604085015261076f818661066a565b97965050505050505056fea2646970667358221220b30c6d0b24e2a525bfbb7464c148d42f7d74a665d5da4a717ba832556370256764736f6c63430008090033",
  "linkReferences": {},
  "deployedLinkReferences": {}
}